:10000000D8C0F2C0F1C0F0C036C6EEC0EDC0ECC042
:10001000EBC0EAC0E9C0E8C0E7C0E6C0E5C0339382
:100020002EC433F31EC400400FC49AD9FEC3CD0CB6
:10003000DFC3CD0CBFC39AD99EC366E67CC333B37E
:100040003BC33333F4C2000060C2666626419A990E
:100050009A429A991043CD4C544300408C439A994C
:10006000AE436626D14333F3F3439A790B449A198E
:100070001D449AD92E449AB940449AB9524400E09A
:1000800064440020774433C3844466068E449A59FE
:10009000974400C0A0449A39AA4433C3B3440060D3
:1000A000BD443313C74466D6D044CDACDA449A99E4
:1000B000E4449A99EE44CDACF844336B0145338B5C
:1000C0000645CDB40B4533EB1045332B1645007870
:1000D0001B4500D02045CD342645CDA42B459A2183
:1000E0003145CDAC364533433C4566E641459A99AA
:1000F000474500584D45662653453303594566EE3E
:100100005E4500E864459AF16A45330B7145CD348C
:10011000774500707D459ADD8145000C8545334368
:10012000884533838B45CDCC8E45002092459A7D02
:100130009545CDE4984566569C4566D29F459A59AB
:10014000A34500ECA6459A89AA453333AE459AE902
:10015000B14500ACB545007CB945CD58BD453343EC
:10016000C145CD3CC5450044C945335BCD459A8169
:10017000D14500B8D54533FFD9450058DE4533C3D6
:10018000E245CD40E7459AD1EB456676F045003033
:10019000F5450000FA459AE5FE459AF10146CD7C09
:1001A0000446CD14074666BA09469A6D0C460030DF
:1001B0000F4611241FBECFE5D2E0DEBFCDBF10E059
:1001C000A0E6B0E0E0E6FFE102C005900D92A8369F
:1001D000B107D9F720E0A8E6B0E001C01D92A4392C
:1001E000B207E1F729D9BACE0BCF8AE0E7EAF1E608
:1001F0003197F1F700C000008150C1F70895CF9307
:10020000CCE3F3DFC150E9F7CF910895C3982FE90C
:1002100086E891E0215080409040E1F700C0000066
:10022000C39A87EA91E60197F1F700C00000C398EE
:1002300087EA91E60197F1F700C00000C39A87EAC8
:1002400091E60197F1F700C00000C39887EA91E6B4
:100250000197F1F700C00000C39A87EA91E6019781
:10026000F1F700C00000C398C0CF811116C0C39839
:100270002FE986E891E0215080409040E1F700C0EE
:100280000000C39AEFEEF9E422E0E150F040204094
:10029000E1F700C00000C39812C090E0C398E3E209
:1002A000F4EF3197F1F700C00000C39AE3E2F4EFF6
:1002B0003197F1F700C000009F5F8913EFCFC3981B
:1002C00008954F925F926F927F928F929F92AF921A
:1002D000BF92CF92DF92EF92FF920F931F93CF9333
:1002E0006B017C01611571058105910589F480E040
:1002F000CF911F910F91FF90EF90DF90CF90BF9023
:10030000AF909F908F907F906F905F904F90ADCF08
:1003100097FF0CC07BDFC601D7FE04C08827992752
:100320008C199D096C01990FEE08FF08A701960131
:10033000C0E09AE0892E912CA12CB12C2115310519
:100340004105510539F0CF5FCA01B901A5019401FA
:1003500065DBF4CFAC2EB12CC501DFDC8C01892B21
:10036000C9F1C1508AE0482E512C612C712CC7FD77
:1003700010C048018C0E911CC7FD9A94C701B601AC
:10038000A30192016DDBF401608369017A01C15020
:10039000EECFC0E08C2F0C2E000C990B8A159B051C
:1003A00044F4F801E80FF91F80815FDF1EDFCF5FA3
:1003B000F1CFC801CF911F910F91FF90EF90DF9087
:1003C000CF90BF90AF909F908F907F906F905F90F5
:1003D0004F903BCDCF911F910F91FF90EF90DF9009
:1003E000CF90BF90AF909F908F907F906F905F90D5
:1003F0004F9008958FB980E48EB9689A769BFDCFAF
:100400008FB10895CF93C62FC4988F77F3DF8C2FC9
:10041000F1DFC49ACF910895CF93DF93C498806899
:10042000E9DF80E0E7DFC82F80E0E4DFD82F80E05D
:10043000E1DFC49A6C2F70E0762F66276D0F711D77
:10044000072E000C880B990BDF91CF910895CF9365
:10045000DF93C4988068CEDF80E0CCDFC82FD0E087
:1004600080E0C8DFC49A90E0982F88278C0F9D1FEA
:10047000DF91CF9108950F931F93CF9388E8E7DF23
:1004800090937300809372008AE8E1DF9093750087
:10049000809374008CE8DBDF909377008093760084
:1004A00009E710E0CEE88C2FD2DFF8018193919319
:1004B0008F01CE5FC03AB9F7CF911F910F91089588
:1004C000E199FECF2CB32F7C2CBB8EBB9FBB6DBBA9
:1004D000E29AE19A08951F93CF93DF93EC01172FCF
:1004E000EFDF612FCE010196DF91CF911F91E8CF11
:1004F000E199FECF8EBB9FBBE09A8DB308950F9319
:100500001F93CF93DF938C01F3DFC82FD0E0C80196
:100510000196EEDF90E0982F88278C0F9D1FDF91CA
:10052000CF911F910F9108950F931F93CF93DF9356
:10053000609172007091730088EE91E0CCDF609161
:100540007400709175008AEE91E0C5DF60917600CD
:10055000709177008CEE91E0BEDF09E710E0CEEEFF
:10056000D1E0F801619171918F01CE01B4DF229643
:10057000C115F2E0DF07A9F7DF91CF911F910F912D
:10058000089568E085EF3EDF64E284EF3BDF73CFE0
:1005900081E080BF8EE187BBC49883EC99E001972E
:1005A000F1F700C00000C49AC2988AE18DB984E0D6
:1005B00089BF08958F929F92AF92BF92CF92DF92A0
:1005C000EF92FF92CF93DF93C2E7D0E0C880D9804B
:1005D000E12CF12C4B015C0124E0B594A794979495
:1005E00087942A95D1F78C189D08AE08BF08DC01C6
:1005F000CB0133E0B595A795979587953A95D1F7B7
:10060000CC0CDD1CEE1CFF1CBC01CD016C197D095E
:100610008E099F092A813B81032E000C440B550B48
:10062000E4D96B017C015BE0F594E794D794C7941F
:100630005A95D1F7A5019401C501B401D6D9ECE0D2
:100640009595879577956795EA95D1F72C813D81AA
:10065000032E000C440B550BC8D9DC01CB01FEE086
:10066000B595A79597958795FA95D1F7BC01CD01DA
:100670006C0D7D1D8E1D9F1D60938C0070938D00F1
:1006800080938E0090938F0025E030E040E050E0B2
:10069000ACD9DC01CB0180589F4FAF4FBF4F692FC2
:1006A0007A2F8B2F992787FD9A95DF91CF91FF9015
:1006B000EF90DF90CF90BF90AF909F908F90089574
:1006C0002F923F924F925F926F927F928F929F9262
:1006D000AF92BF92CF92DF92EF92FF920F931F9350
:1006E000CF93DF93CDB7DEB7A7970FB6F894DEBFF1
:1006F0000FBECDBF6C8F7D8F8E8F9F8F20917F001F
:1007000028A33091800038874091810049A35091FF
:1007100082005987809183008AA3209184002F83CF
:10072000309185003BA3409186004A875091870015
:100730005CA3809188008B87209189002DA3309144
:100740008A003C8780918C0090918D00A0918E0052
:10075000B0918F006C017D01FF0CCC08DC2C760180
:100760009C01AD016C2D7C2D8C2D9C2D345F414066
:10077000510961097109810991092FA33EA3498398
:100780005A836B837C838D839E8359016A017B012D
:100790008C0182D92C8B3D8B4E8B5F8B688F798F30
:1007A0008A8F9B8F30917C0020917B00932F990F33
:1007B000990B492F592F692F792F892F6DD90CE06B
:1007C00057DA19012A013B014C0130917E0020913A
:1007D0007D00932F990F990BAC88BD88CE88DF8858
:1007E000E88CF98C0A8D1B8D492F592F692F792F91
:1007F000892F52D908E055DA510162017301840151
:100800006EDA70588F4F9F4F2090790030907A00A9
:100810005101C12CD12CE12CF12C00E010E03CD98D
:1008200001E23FDA2D873E874F87588B698B7A8BA1
:100830008B8B692EA0E065DA09F4E4C02AA19F81C0
:10084000990F990BAC88BD88CE88DF88E88CF98C2D
:100850000A8D1B8D3F81492F592F692F792F892FA1
:100860001BD919012A016F83772E4C0129A1998583
:10087000990F990BAFA0BEA0C980DA80EB80FC80F5
:100880000D811E813985492F592F692F792F892F85
:1008900003D901E1EDD951016201EF80F72C840108
:1008A0001EDA59016A017B01782E192F80E090E051
:1008B000A0E1B0E02C8D3D8D4E8D5F8D821B930BA2
:1008C000A40BB50B1C012D01550C2208322C210163
:1008D0009C01AD01622D722D822D922D0FE1C8D9A0
:1008E00049014A835983B62FA72FF82FE92F28A152
:1008F0009885990F990B3885492F592F692F792F92
:10090000892F03E2B5D9072DEAD959016A017B0184
:100910008C0194014A8159816B2F7A2F8F2F9E2F42
:10092000E7D9E5E3AE2EFCE0BF2EC12CD12CE12CA3
:10093000F12C00E010E0B0D8AD84BE84CF84D8881C
:10094000E988FA880B89162DD7D828873F834983F1
:100950005A836B837C838D839E830DE0A2D9922E74
:10096000292E2DA19C85990F990BA92CB32EC42E4D
:10097000D52EE62EF72E082F122D3C85492F592F04
:10098000692F792F892F88D887D809E18AD9A88437
:10099000BF80C980DA80EB80FC800D811E819FD9E9
:1009A00019012A013B014C012CA19B85990F990B40
:1009B0003B85492F592F692F792F892F6DD803E156
:1009C00070D959016A017B018C019101A201B30127
:1009D000C40185D908E065D959016A017B01E82F76
:1009E000192F2BA19A85990F990B3A85492F592FC9
:1009F000692F792F892F04E03BD90E2F70D9B901C7
:100A0000CA0104C060E070E080E090E0A7960FB6F5
:100A1000F894DEBF0FBECDBFDF91CF911F910F9134
:100A2000FF90EF90DF90CF90BF90AF909F908F900E
:100A30007F906F905F904F903F902F9008954F92CE
:100A40005F926F927F928F929F92AF92BF92CF925E
:100A5000DF92EF92FF92CF93DF93CDB7DEB7669729
:100A60000FB6F894DEBF0FBECDBFBFDB82EE91E0C4
:100A700046DD8F3F2FEF920709F4E8C0A0E0B0E019
:100A8000BC01CD0144E0660F771F881F991F4A956E
:100A9000D1F790DD84EE91E032DDA0E0B0E0BC0162
:100AA000CD0154E0660F771F881F991F5A95D1F723
:100AB00007DE69837A838B839C8386EE91E01FDD5A
:100AC000A0E0B0E0BC01CD01E4E0660F771F881F15
:100AD000991FEA95D1F7F4DD6D837E838F83988724
:100AE0008EE190E09E8B8D8B412CF0EB5F2EFDEA2A
:100AF0006F2E77247394812CA0EB9A2EADEAAA2E48
:100B0000BB24B3941D861E861F86188A19861A86F2
:100B10001B861C8690E2991A93E0A90AB108ED8918
:100B2000FE89C590D590E590F490AD89BE89149664
:100B3000BE8BAD8BFD016591759185919491A70157
:100B4000960130D520E030E048E454EC94D5698B30
:100B50007A8B8B8B9C8B8D819E81AF81B88548165B
:100B600059066A067B06E4F088159905AA05BB05B7
:100B7000BCF084199509A609B709692F7A2F8B2F24
:100B8000992787FD9A9512D629893A894B895C89DC
:100B9000C1D6A701960107D569877A878B879C877D
:100BA00089819A81AB81BC81481659066A067B0609
:100BB000E4F088159905AA05BB05BCF084199509D0
:100BC000A609B709692F7A2F8B2F992787FD9A9548
:100BD000EDD529893A894B895C899CD6A701960174
:100BE000E2D46D877E878F87988B90E2591A93E0C5
:100BF000690A71088114A0E39A06A5E7AA06B10460
:100C000009F088CF29853A854B855C856D857E8581
:100C10008F859889C7D420E030E040E251E47AD64D
:100C200092D566960FB6F894DEBF0FBECDBFDF91AA
:100C3000CF91FF90EF90DF90CF90BF90AF909F90BB
:100C40008F907F906F905F904F903BCB66960FB6E2
:100C5000F894DEBF0FBECDBFDF91CF91FF90EF9034
:100C6000DF90CF90BF90AF909F908F907F906F90CC
:100C70005F904F9008951F920F920FB60F9211241C
:100C80002F938F939F938091780080FF46C080912F
:100C900066009091670001979093670080936600CB
:100CA000803421E0920721F148F4009741F18797C1
:100CB000A1F580918B00887F85601EC08A3222E07A
:100CC000920789F08E3E22E0920741F083309240F5
:100CD00021F580918B00887F83600EC080918B000E
:100CE000887F816009C080918B00887F826004C00A
:100CF00080918B00887F846080938B000EC0C398A6
:100D00008091780082FF03C083E49FE002C08FEEF1
:100D100092E090936700809366009F918F912F914E
:100D20000F900FBE0F901F9018952F923F924F92E9
:100D30005F926F927F928F929F92AF92BF92CF926B
:100D4000DF92EF92FF920F931F93CF93DF93CDB774
:100D5000DEB7A0970FB6F894DEBF0FBECDBF9A875F
:100D6000898788E090E0D9D790936F0080936E00D8
:100D700088E290E0D2D790936D0080936C0088E277
:100D800090E0CBD7909371008093700080E590E065
:100D9000C4D7909369008093680080E590E0BDD748
:100DA00090936B0080936A008091780081608093BB
:100DB0007800789422E02B8704E1212C312C21014A
:100DC0001F8A188E198E1A8E1E8A10E019821A82B6
:100DD0001B821C828091780080FF14C380918B005D
:100DE00087708330B1F058F4813079F0823091F718
:100DF00087EF12DB69837A838B839C83FDC2843007
:100E000031F1853009F4E8C2E5CF65E284EFFADA22
:100E1000F3C28091780081FFEFC2A985BA858D91D8
:100E20009C91803E914008F082C2F89469817A8159
:100E3000E985FA85808191814EDB7894A985BA8510
:100E40008D919C91119702968D939C93D5C2809120
:100E5000780082FF05C020E030E040E85FE304C096
:100E600026EA3BE944E45EE3C201B1019CD31B01E5
:100E70002C01BB85B23021F0B33009F4CCC0BCC228
:100E8000E0916C00F0916D001431C0F4812F90E07E
:100E9000880F991FE80FF91FC980DA80D182C082BC
:100EA000103108F469C120916E0030916F00820FFB
:100EB000931FFC01B097D182C0825EC1DF0140E088
:100EC00050E0BA0121E012968D919C9113978D9379
:100ED0009D93213120F4480F591F611D711D2F5F13
:100EE000243189F729813A8137A326A36A017B013E
:100EF000B4E0F594E794D794C794BA95D1F7CF8A24
:100F0000D88EE98EFA8EE0906E00F0906F00FE822F
:100F1000ED82D70112968D919C91139711969C9317
:100F20008E9314966D917C91159713967C936E9386
:100F30001297AB0160E070E0480F591F611D711DF1
:100F400016968D919C91179715969C938E93149756
:100F50006A017B01C80ED91EE11CF11CD701C60134
:100F6000ED81FE8137832683C980DA80EB80FC80A7
:100F7000C80ED91EEA1EFB1EC701B60124E030E0F0
:100F800040E050E06DD549015A016D807E8028E037
:100F9000620E711CC12CD12C7601AD81BE816D9188
:100FA0007D91BE83AD83CB01A0E0B0E0BC01CD015B
:100FB000681979098A099B099B01AC0116D5C60EEF
:100FC000D71EE81EF91EED81FE816E167F0629F7F9
:100FD000F4E9CF16F1E0DF06E104F1040CF40CC2F1
:100FE000F8946F89788D86EE91E075DA7894E091C7
:100FF0006E00F0916F00CF88D88CD182C08260E003
:1010000085EF00DA8091780082608093780023E099
:101010002B8710E0F1C1412F50E05D874C87609035
:10102000700070907100C0906800D0906900DE82FE
:10103000CD821017B8F4CA01880F991FF301E80F89
:10104000F91FE980FA80F182E082440F551F440FB6
:10105000551F4C0D5D1DDA012D923D924D925C9213
:1010600013978AC0202F30E0C901880F991FEC85A3
:10107000FD85E817F907B4F0C0906A00D0906B00C6
:10108000DB8ACA8A7C8E6B8EED80FE80F8A2EF8EA2
:10109000DE8ECD8EDF86CE86C12CD12C760121E06E
:1010A0002C876CC0D301ED81FE81FF24F394F016F0
:1010B00081F012968D919C9113978D939D9344810D
:1010C0005581668177814193519361937193F39434
:1010D000EECF802F90E0FC01E150F048EE0FFF1FB3
:1010E000E60DF71D49815A8151834083FC01E1508F
:1010F000F04CEE0FFF1FEE0FFF1FCD80DE80EC0DDA
:10110000FD1D2082318242825382EC84FD84E21AEA
:10111000F30AEE0CFF1CEE0CFF1C80916A0090910C
:101120006B00E80EF91EFD86EC86D3018D919C9133
:10113000BA01681B790B77FF03C07195619571093E
:10114000072E000C880B990B31D36B017C01ED81CC
:10115000FE812081318142815381C201B10122D2BD
:101160009B01AC01C701B60186D2AC85BD856D93EC
:101170007D938D939C9313971F5F3EC12C85201701
:1011800081F1EB8DFC8D8281938181939193FC8F12
:10119000EB8FEF8DF8A184819581A681B781819332
:1011A0009193A193B193F8A3EF8FAE85BF85149669
:1011B0008D909D90AD90BC901797FD01819291927A
:1011C000A192B192FF87EE87C701B601EFD2A501C8
:1011D0009401E9D1B8D26B017C01FC85FF5FFC87EB
:1011E000CDCF402F50E089819A819D878C87FA016D
:1011F000E150F048EE0FFF1FE60DF71D918380834D
:10120000FA01E150F04CEE0FFF1FEE0FFF1FFF87BA
:10121000EE87ED81FE812E853F85E20FF31F208250
:10122000318242825382D3018D919C9169817A816E
:10123000681B790B77FF03C0719561957109072EC3
:10124000000C880B990BB2D24B015C01ED81FE8141
:101250002081318142815381C201B101A3D19B011F
:10126000AC01C501B40107D24B015C012E853F855D
:101270004A895B89240F351FD9016D937D938D9326
:101280009C931397C701B60191D2A50194018BD10C
:10129000C02ED12CE12CF12CCD82DE82EF82F8869B
:1012A00052D2A7019601DCD32A8B3B8B4C8B5D8BF2
:1012B000C12CD12C76011B8EAD8DBE8D2D913D9113
:1012C0004D915D91BE8FAD8F2E873F87488B598B97
:1012D0006A897B898C899D8969D29B01AC016E8565
:1012E0007F85888999895ED12ED29B01AC017DD3FF
:1012F000C60ED71EE81EF91EBB8DBF5FBB8F0B133A
:10130000DBCFC701B6012D813E814F815885A8D31F
:101310002A303105410551050CF06EC020E030E067
:1013200040E85FE3C501B401A2D1181624F0809112
:1013300078008E7F3EC08091780082FD5DC08091F4
:10134000780083FD59C0E985FA85808191816EED31
:1013500071E0681B790B7695679580E090E024D268
:1013600026EA3BE944E45EE3D5D26B017C016C855F
:101370007D852F89388D621B730B77FF03C07195B4
:1013800061957109072E000C880B990B0FD2A501EE
:10139000940171D120E030E040E450E404D19B019D
:1013A000AC01C701B601B2D2181634F480917800AE
:1013B00088608093780020C080917800846080935A
:1013C0007800F894A985BA856D917C9180EE91E0C2
:1013D00082D8789405E010C0BB85B23021F0B330DC
:1013E00059F4C39A09C0113138F0EE89EF5FEE8BE2
:1013F000E53011F4C39A1E8A80918B00887F809318
:101400008B00E8CCF894A0960FB6F894DEBF0FBE20
:10141000CDBFDF91CF911F910F91FF90EF90DF90A3
:10142000CF90BF90AF909F908F907F906F905F9084
:101430004F903F902F900895EF92FF920F931F933C
:10144000CF93DF9300D0CDB7DEB71A821982809197
:101450008B00887F80938B00809178008E7F8093B3
:101460007800809178008D7F80937800809178005B
:101470008B7F8093780080917800877F80937800BD
:1014800087D87FD8DCDABBD665E284EFBBD783ECA4
:1014900099E00197F1F700C000008AEFBDD782EE16
:1014A00091E019D888E090E09A838983CE01019673
:1014B0003CDC80B78E7F80BF80917000909171007E
:1014C000C4D48091680090916900BFD480916A0073
:1014D00090916B00BAD4E980FA801A82198200E0F8
:1014E00010E0E0916E00F0916F00E00FF11F60815D
:1014F000718189819A81EFD789819A8102969A8335
:1015000089830E5F1F4F0830110559F780916E00D7
:1015100090916F009AD480916C0090916D0095D459
:101520001A82198200E010E089819A818E159F0548
:1015300058F4E5D70817190708F48C0189819A81B6
:1015400002969A838983F0CFB80184EE91E0C3D7E5
:10155000FA82E98289819A81803E21E0920748F4EB
:101560006FEF7FEFB8D789819A8102969A8389833A
:10157000F1CFDAD74BD6F89485B7877E806185BFE7
:1015800085B7806285BF889585B78F7D85BF80E0F0
:1015900090E00F900F90DF91CF911F910F91FF90EE
:1015A000EF9008955058BB27AA270ED075C166D179
:1015B00030F06BD120F031F49F3F11F41EF45BC189
:1015C0000EF4E095E7FB51C1E92F77D180F3BA170C
:1015D000620773078407950718F071F49EF58FC1B1
:1015E0000EF4E0950B2EBA2FA02D0B01B90190013E
:1015F0000C01CA01A0011124FF27591B99F0593F82
:1016000050F4503E68F11A16F040A22F232F342FC9
:101610004427585FF3CF469537952795A795F04017
:101620005395C9F77EF41F16BA0B620B730B840B2C
:10163000BAF09150A1F0FF0FBB1F661F771F881FE4
:10164000C2F70EC0BA0F621F731F841F48F487953C
:1016500077956795B795F7959E3F08F0B3CF93952B
:10166000880F08F09927EE0F979587950895D9D0A0
:1016700008F481E008950CD00FC107D140F0FED0EE
:1016800030F021F45F3F19F0F0C0511139C1F3C0BF
:1016900014D198F39923C9F35523B1F3951B550B36
:1016A000BB27AA2762177307840738F09F5F5F4F35
:1016B000220F331F441FAA1FA9F333D00E2E3AF076
:1016C000E0E830D091505040E695001CCAF729D090
:1016D000FE2F27D0660F771F881FBB1F26173707DF
:1016E0004807AB07B0E809F0BB0B802DBF01FF270F
:1016F00093585F4F2AF09E3F510568F0B6C000C175
:101700005F3FECF3983EDCF3869577956795B79548
:10171000F7959F5FC9F7880F911D9695879597F963
:101720000895E1E0660F771F881FBB1F62177307DC
:101730008407BA0720F0621B730B840BBA0BEE1FF1
:1017400088F7E095089504D06894B111D9C0089540
:10175000BCD088F09F5790F0B92F9927B751A0F0CF
:10176000D1F0660F771F881F991F1AF0BA95C9F735
:1017700012C0B13081F0C3D0B1E00895C0C0672F6E
:10178000782F8827B85F39F0B93FCCF386957795E5
:101790006795B395D9F73EF49095809570956195CE
:1017A0007F4F8F4F9F4F0895E89409C097FB3EF4F9
:1017B00090958095709561957F4F8F4F9F4F99239E
:1017C000A9F0F92F96E9BB279395F695879577951C
:1017D0006795B795F111F8CFFAF4BB0F11F460FFDC
:1017E0001BC06F5F7F4F8F4F9F4F16C0882311F034
:1017F00096E911C0772321F09EE8872F762F05C048
:10180000662371F096E8862F70E060E02AF09A95E2
:10181000660F771F881FDAF7880F9695879597F9D7
:101820000895990F0008550FAA0BE0E8FEEF161671
:101830001706E807F907C0F012161306E407F507C4
:1018400098F0621B730B840B950B39F40A2661F038
:10185000232B242B252B21F408950A2609F4A140DB
:10186000A6958FEF811D811D089597F99F6780E8E8
:1018700070E060E008959FEF80EC089500240A94E2
:101880001616170618060906089500240A9412165B
:101890001306140605060895092E0394000C11F48E
:1018A000882352F0BB0F40F4BF2B11F460FF04C03B
:1018B0006F5F7F4F8F4F9F4F089557FD9058440F94
:1018C000551F59F05F3F71F04795880F97FB991F9F
:1018D00061F09F3F79F0879508951216130614065C
:1018E000551FF2CF4695F1DF08C0161617061806E9
:1018F000991FF1CF86957105610508940895E894C4
:10190000BB2766277727CB0197F908958ADF08F46C
:101910008FEF08950AD0C0CFB1DF28F0B6DF18F0FE
:10192000952309F0A2CFA7CFEBCFC7DFA8F3992368
:10193000D9F35523C9F3950F50E0551FAA27EE2779
:10194000FF27BB2700240894679520F4E20FF31FBC
:10195000B41F0A1E220F331F441FAA1F6695A9F742
:10196000779530F4F30FB41F0A1E121E08F4639526
:10197000330F441FAA1F221F769599F7879520F4ED
:10198000B40F0A1E121E631F440FAA1F221F331F0B
:101990008695A9F7862F712D602D11249F575040F1
:1019A0008AF0E1F088234AF0EE0FFF1FBB1F661F8D
:1019B000771F881F91505040A9F79E3F510570F046
:1019C00054CF9ECF5F3FECF3983EDCF3869577953E
:1019D0006795B795F795E7959F5FC1F7FE2B880F41
:1019E000911D9695879597F90895EE27FF27AA27C9
:1019F000BB2708C0A20FB31FE41FF51F220F331F20
:101A0000441F551F969587957795679598F3704075
:101A1000A9F7009799F7BD01CF010895A1E21A2E09
:101A2000AA1BBB1BFD010DC0AA1FBB1FEE1FFF1F82
:101A3000A217B307E407F50720F0A21BB30BE40BD2
:101A4000F50B661F771F881F991F1A9469F7609519
:101A50007095809590959B01AC01BD01CF010895D3
:101A6000052E97FB16F400940FD057FD05D0D6DF56
:101A700007FC02D046F408C050954095309521955A
:101A80003F4F4F4F5F4F08959095809570956195AA
:101A90007F4F8F4F9F4F0895DF93CF939F92A0E486
:101AA0009A2E0024D001E001F00116950795F794D5
:101AB000E794D794C794B794A79448F41068A20FFA
:101AC000B31FC41FD51FE61FF71F081E191E220FC4
:101AD000331F441F551F661F771F881F991F9A9435
:101AE00021F79D01AE01BF01C00111249F90CF914C
:101AF000DF910895689401C0E894F92FF12B0AF062
:101B000027C0A0E0B0E0E6E8FDE081C0092E059422
:101B10001AF467D0112392F4F0E80F26FFEFE09457
:101B2000F09400951095B094C094D094A194BF0AFD
:101B3000CF0ADF0AEF0AFF0A0F0B1F0B13D007FCB7
:101B400050D0CDB7DEB7ECE07EC0689401C0E89419
:101B50008F929F92CF93DF9305D0DF91CF919F908B
:101B60008F90089588249924F401E401B0E41B2E99
:101B7000D4019D158E049F04E007F10738F4FC01A1
:101B80004B01CA01B901AD019E011694220F331F0A
:101B9000441F551F661F771F881F991F881C991C9B
:101BA000EE1FFF1FCC1FDD1FAA1FBB1F8A149B0443
:101BB000EC05FD05CE05DF05A007B10748F08A1842
:101BC0009B08EC09FD09CE09DF09A00BB10B2160D0
:101BD0001A94E1F62EF49401AF01BE01CD01000C80
:101BE00008956095709580959095309540955095A5
:101BF00021953F4F4F4F5F4F6F4F7F4F8F4F9F4FFD
:101C000008952F923F924F925F926F927F928F92A0
:101C10009F92AF92BF92CF92DF92EF92FF920F937B
:101C20001F93CF93DF93CDB7DEB7CA1BDB0B0FB685
:101C3000F894DEBF0FBECDBF09942A883988488842
:101C40005F846E847D848C849B84AA84B984C884D8
:101C5000DF80EE80FD800C811B81AA81B981CE0FCF
:101C6000D11D0FB6F894DEBF0FBECDBFED010895B4
:101C70000F93083090F0982F872F762F652F542FD1
:101C8000432F322F22270850F4CF220F331F441F37
:101C9000551F661F771F881F991F0A95B2F70F916E
:101CA000089597FB10F8169400080F93083098F0E9
:101CB0000850232F342F452F562F672F782F892F29
:101CC000902DF4CF059497958795779567955795BF
:101CD0004795379527950A95AAF70F9108952A0DEC
:101CE0003B1D4C1D5D1D6E1D7F1D801F911F0895A6
:101CF0002A193B094C095D096E097F09800B910B7C
:101D000008950024A7FD00942A17300540055005CA
:101D1000600570058005900508950F931F93CF937C
:101D2000DF938230910510F482E090E0E091920020
:101D3000F091930020E030E0A0E0B0E0309719F19E
:101D4000408151810281138148175907C8F08417D7
:101D5000950769F4109731F012960C931297139629
:101D60001C9327C0009392001093930022C021156A
:101D7000310519F04217530718F49A01BD01EF011C
:101D8000DF01F801DBCF21153105F9F0281B390BF4
:101D90002430310580F48A819B816115710521F021
:101DA000FB019383828304C09093930080939200FD
:101DB000FE01329644C0FE01E20FF31F819391931E
:101DC00022503109398328833AC020919000309104
:101DD0009100232B41F420916200309163003093F5
:101DE00091002093900020916000309161002115B6
:101DF000310541F42DB73EB7409164005091650024
:101E0000241B350BE0919000F0919100E217F3074D
:101E1000A0F42E1B3F0B2817390778F0AC014E5F5A
:101E20005F4F2417350748F04E0F5F1F5093910006
:101E3000409390008193919302C0E0E0F0E0CF01E5
:101E4000DF91CF911F910F910895CF93DF9300976A
:101E500009F481C0FC01329713821282A091920092
:101E6000B0919300109781F420813181820F931FEC
:101E700020919000309191002817390751F5F09387
:101E80009100E093900067C0ED0120E030E0CE17B4
:101E9000DF0740F44A815B819E0141155105F1F055
:101EA000EA01F5CFD383C28340815181840F951F0E
:101EB000C817D90759F488819981840F951F029614
:101EC000918380838A819B8193838283211531054D
:101ED00029F4F0939300E09392003DC0E901FB8365
:101EE000EA8349915991C40FD51FEC17FD0761F49E
:101EF00080819181840F951F0296E90199838883DF
:101F0000828193819B838A83E0E0F0E012968D9139
:101F10009C911397009719F0FD01DC01F7CF8D918B
:101F20009C9111979D012E5F3F4F820F931F20912F
:101F30009000309191002817390769F4309729F4FF
:101F4000109293001092920002C013821282B093FA
:101F50009100A0939000DF91CF910895F894FFCF66
:081F6000000094002000EF02D4
:00000001FF
